{
  "contractName": "Lottery",
  "abi": [
    {
      "inputs": [],
      "stateMutability": "nonpayable",
      "type": "constructor"
    },
    {
      "inputs": [],
      "name": "manager",
      "outputs": [
        {
          "internalType": "address",
          "name": "",
          "type": "address"
        }
      ],
      "stateMutability": "view",
      "type": "function",
      "constant": true
    },
    {
      "inputs": [
        {
          "internalType": "uint256",
          "name": "",
          "type": "uint256"
        }
      ],
      "name": "players",
      "outputs": [
        {
          "internalType": "address payable",
          "name": "",
          "type": "address"
        }
      ],
      "stateMutability": "view",
      "type": "function",
      "constant": true
    },
    {
      "inputs": [],
      "name": "winner",
      "outputs": [
        {
          "internalType": "address payable",
          "name": "",
          "type": "address"
        }
      ],
      "stateMutability": "view",
      "type": "function",
      "constant": true
    },
    {
      "stateMutability": "payable",
      "type": "receive",
      "payable": true
    },
    {
      "inputs": [],
      "name": "getBalance",
      "outputs": [
        {
          "internalType": "uint256",
          "name": "",
          "type": "uint256"
        }
      ],
      "stateMutability": "view",
      "type": "function",
      "constant": true
    },
    {
      "inputs": [],
      "name": "pickWinner",
      "outputs": [],
      "stateMutability": "nonpayable",
      "type": "function"
    },
    {
      "inputs": [],
      "name": "allPlayers",
      "outputs": [
        {
          "internalType": "address payable[]",
          "name": "",
          "type": "address[]"
        }
      ],
      "stateMutability": "view",
      "type": "function",
      "constant": true
    }
  ],
  "bytecode": "0x608060405234801561001057600080fd5b5033600160006101000a81548173ffffffffffffffffffffffffffffffffffffffff021916908373ffffffffffffffffffffffffffffffffffffffff160217905550610b97806100616000396000f3fe6080604052600436106100595760003560e01c806312065fe014610112578063481c6a751461013d5780635d495aea14610168578063b0ec80941461017f578063dfbf53ae146101aa578063f71d96cb146101d55761010d565b3661010d5767016345785d8a000034146100a8576040517f08c379a000000000000000000000000000000000000000000000000000000000815260040161009f906106d1565b60405180910390fd5b6000339080600181540180825580915050600190039060005260206000200160009091909190916101000a81548173ffffffffffffffffffffffffffffffffffffffff021916908373ffffffffffffffffffffffffffffffffffffffff160217905550005b600080fd5b34801561011e57600080fd5b50610127610212565b604051610134919061070a565b60405180910390f35b34801561014957600080fd5b506101526102aa565b60405161015f9190610766565b60405180910390f35b34801561017457600080fd5b5061017d6102d0565b005b34801561018b57600080fd5b5061019461050b565b6040516101a19190610851565b60405180910390f35b3480156101b657600080fd5b506101bf610599565b6040516101cc9190610882565b60405180910390f35b3480156101e157600080fd5b506101fc60048036038101906101f791906108ce565b6105bf565b6040516102099190610882565b60405180910390f35b6000600160009054906101000a900473ffffffffffffffffffffffffffffffffffffffff1673ffffffffffffffffffffffffffffffffffffffff163373ffffffffffffffffffffffffffffffffffffffff16146102a4576040517f08c379a000000000000000000000000000000000000000000000000000000000815260040161029b90610947565b60405180910390fd5b47905090565b600160009054906101000a900473ffffffffffffffffffffffffffffffffffffffff1681565b600160009054906101000a900473ffffffffffffffffffffffffffffffffffffffff1673ffffffffffffffffffffffffffffffffffffffff163373ffffffffffffffffffffffffffffffffffffffff1614610360576040517f08c379a000000000000000000000000000000000000000000000000000000000815260040161035790610947565b60405180910390fd5b600360008054905010156103a9576040517f08c379a00000000000000000000000000000000000000000000000000000000081526004016103a0906109b3565b60405180910390fd5b60006103b36105fe565b905060008080549050826103c79190610a02565b905060008082815481106103de576103dd610a33565b5b9060005260206000200160009054906101000a900473ffffffffffffffffffffffffffffffffffffffff16905080600260006101000a81548173ffffffffffffffffffffffffffffffffffffffff021916908373ffffffffffffffffffffffffffffffffffffffff1602179055506000806104599190610636565b60008173ffffffffffffffffffffffffffffffffffffffff164760405161047f90610a93565b60006040518083038185875af1925050503d80600081146104bc576040519150601f19603f3d011682016040523d82523d6000602084013e6104c1565b606091505b5050905080610505576040517f08c379a00000000000000000000000000000000000000000000000000000000081526004016104fc90610af4565b60405180910390fd5b50505050565b6060600080548060200260200160405190810160405280929190818152602001828054801561058f57602002820191906000526020600020905b8160009054906101000a900473ffffffffffffffffffffffffffffffffffffffff1673ffffffffffffffffffffffffffffffffffffffff1681526020019060010190808311610545575b5050505050905090565b600260009054906101000a900473ffffffffffffffffffffffffffffffffffffffff1681565b600081815481106105cf57600080fd5b906000526020600020016000915054906101000a900473ffffffffffffffffffffffffffffffffffffffff1681565b600042600080549050604051602001610618929190610b35565b6040516020818303038152906040528051906020012060001c905090565b50805460008255906000526020600020908101906106549190610657565b50565b5b80821115610670576000816000905550600101610658565b5090565b600082825260208201905092915050565b7f506c65617365207061792031206574686572206f6e6c79212100000000000000600082015250565b60006106bb601983610674565b91506106c682610685565b602082019050919050565b600060208201905081810360008301526106ea816106ae565b9050919050565b6000819050919050565b610704816106f1565b82525050565b600060208201905061071f60008301846106fb565b92915050565b600073ffffffffffffffffffffffffffffffffffffffff82169050919050565b600061075082610725565b9050919050565b61076081610745565b82525050565b600060208201905061077b6000830184610757565b92915050565b600081519050919050565b600082825260208201905092915050565b6000819050602082019050919050565b60006107b882610725565b9050919050565b6107c8816107ad565b82525050565b60006107da83836107bf565b60208301905092915050565b6000602082019050919050565b60006107fe82610781565b610808818561078c565b93506108138361079d565b8060005b8381101561084457815161082b88826107ce565b9750610836836107e6565b925050600181019050610817565b5085935050505092915050565b6000602082019050818103600083015261086b81846107f3565b905092915050565b61087c816107ad565b82525050565b60006020820190506108976000830184610873565b92915050565b600080fd5b6108ab816106f1565b81146108b657600080fd5b50565b6000813590506108c8816108a2565b92915050565b6000602082840312156108e4576108e361089d565b5b60006108f2848285016108b9565b91505092915050565b7f596f7520617265206e6f7420746865206d616e61676572000000000000000000600082015250565b6000610931601783610674565b915061093c826108fb565b602082019050919050565b6000602082019050818103600083015261096081610924565b9050919050565b7f506c617965727320617265206c657373207468616e2033000000000000000000600082015250565b600061099d601783610674565b91506109a882610967565b602082019050919050565b600060208201905081810360008301526109cc81610990565b9050919050565b7f4e487b7100000000000000000000000000000000000000000000000000000000600052601260045260246000fd5b6000610a0d826106f1565b9150610a18836106f1565b925082610a2857610a276109d3565b5b828206905092915050565b7f4e487b7100000000000000000000000000000000000000000000000000000000600052603260045260246000fd5b600081905092915050565b50565b6000610a7d600083610a62565b9150610a8882610a6d565b600082019050919050565b6000610a9e82610a70565b9150819050919050565b7f4574686572207472616e73666572206661696c65640000000000000000000000600082015250565b6000610ade601583610674565b9150610ae982610aa8565b602082019050919050565b60006020820190508181036000830152610b0d81610ad1565b9050919050565b6000819050919050565b610b2f610b2a826106f1565b610b14565b82525050565b6000610b418285610b1e565b602082019150610b518284610b1e565b602082019150819050939250505056fea264697066735822122017a3a9215bbee0af0116449969162b3fd6cbcc17b97a24f9c2b5887b51167de364736f6c634300080b0033",
  "immutableReferences": {},
  "source": "// SPDX-License-Identifier: GPL-3.0\r\n\r\n\r\npragma solidity >=0.5.0 <0.9.0;\r\ncontract Lottery {\r\n    address payable[] public players;\r\n    address public  manager;\r\n    address payable public winner;\r\n\r\n    constructor(){\r\n        manager = msg.sender;\r\n\r\n    }\r\n    receive() external payable { \r\n        require(msg.value==0.1 ether,\"Please pay 1 ether only!!\");\r\n        players.push(payable(msg.sender));\r\n    }\r\n    function getBalance() public view returns(uint){\r\n        // require(manager==msg.sender, \"You are not the manager\");\r\n         require(msg.sender == manager, \"You are not the manager\");\r\n        return address(this).balance;\r\n    }\r\n    // function random() internal  view returns(uint){\r\n    //     return uint(keccak256(abi.encodePacked(block.difficulty,block.timestamp,players.length)));\r\n    // }\r\n    \r\n    function Getrandom() internal view returns (uint) {\r\n        return uint(\r\n            keccak256(\r\n                abi.encodePacked(\r\n                    block.timestamp,\r\n                    players.length\r\n                )\r\n            )\r\n        );\r\n    }\r\n    \r\n    // function pickWinner() public {\r\n    //     require(msg.sender == manager, \"you are not the manager\");\r\n    //     require(players.length >= 3, \"Players are less than 3\");\r\n\r\n    //     uint r = Getrandom();\r\n    //     uint index= r%players.length;\r\n    //     winner = players[index];\r\n    //     winner.transfer(getBalance());\r\n    //     players = new address payable[](0);\r\n    // }\r\n function pickWinner() public {\r\n    require(msg.sender == manager, \"You are not the manager\");\r\n    require(players.length >= 3, \"Players are less than 3\");\r\n\r\n    uint r = Getrandom();\r\n    uint index = r % players.length;\r\n\r\n    address payable selectedWinner = players[index];\r\n    winner = selectedWinner;\r\n\r\n    // EFFECT FIRST (reset state)\r\n    delete players;\r\n\r\n\r\n    // INTERACTION\r\n    (bool success, ) = selectedWinner.call{value: address(this).balance}(\"\");\r\n    require(success, \"Ether transfer failed\");\r\n}\r\n\r\n\r\n\r\n\r\n\r\n    function allPlayers() public view returns (address payable[] memory){\r\n        return players;\r\n    }\r\n\r\n}\r\n//  > contract address:    0x599671124F22853b22BD4Acb1050e06c07297f56\r\n//  0x354ba87A4a76C9dB6c051cCD02d4f20aEFe0880f\r\n//  > contract address:    0xa75ACfB941a02E7C43450Ab5cD222428Ea62F3D3\r\n// > contract address:    0x514392f7e7838791ceC427AF2da4A6B897f3a7A4\r\n//  > contract address:    0x011c390040FB57C6f456dE50507086a2aA23D745",
  "sourcePath": "D:\\LotteryDapp\\web3lab\\contracts\\Lottery.sol",
  "compiler": {
    "name": "solc",
    "version": "0.8.11+commit.d7f03943.Emscripten.clang"
  },
  "schemaVersion": "3.4.16",
  "updatedAt": "2025-12-26T12:20:51.680Z",
  "networkType": "ethereum",
  "devdoc": {
    "kind": "dev",
    "methods": {},
    "version": 1
  },
  "userdoc": {
    "kind": "user",
    "methods": {},
    "version": 1
  }
}